{
  "contractName": "LotteryGenerator",
  "abi": [
    {
      "inputs": [],
      "stateMutability": "nonpayable",
      "type": "constructor"
    },
    {
      "anonymous": false,
      "inputs": [
        {
          "indexed": false,
          "internalType": "address",
          "name": "sender",
          "type": "address"
        },
        {
          "indexed": false,
          "internalType": "uint256",
          "name": "value",
          "type": "uint256"
        }
      ],
      "name": "LogDepositReceived",
      "type": "event"
    },
    {
      "anonymous": false,
      "inputs": [
        {
          "indexed": false,
          "internalType": "address",
          "name": "newLottery",
          "type": "address"
        }
      ],
      "name": "LotteryCreated",
      "type": "event"
    },
    {
      "anonymous": false,
      "inputs": [
        {
          "indexed": true,
          "internalType": "address",
          "name": "previousOwner",
          "type": "address"
        },
        {
          "indexed": true,
          "internalType": "address",
          "name": "newOwner",
          "type": "address"
        }
      ],
      "name": "OwnershipTransferred",
      "type": "event"
    },
    {
      "stateMutability": "payable",
      "type": "fallback",
      "payable": true
    },
    {
      "inputs": [
        {
          "internalType": "uint256",
          "name": "",
          "type": "uint256"
        }
      ],
      "name": "LotteryWinnersArray",
      "outputs": [
        {
          "internalType": "address",
          "name": "",
          "type": "address"
        }
      ],
      "stateMutability": "view",
      "type": "function",
      "constant": true
    },
    {
      "inputs": [
        {
          "internalType": "uint256",
          "name": "",
          "type": "uint256"
        }
      ],
      "name": "LotteryWinnersArrayPrizes",
      "outputs": [
        {
          "internalType": "uint256",
          "name": "",
          "type": "uint256"
        }
      ],
      "stateMutability": "view",
      "type": "function",
      "constant": true
    },
    {
      "inputs": [
        {
          "internalType": "address",
          "name": "",
          "type": "address"
        }
      ],
      "name": "LotteryWinnersMap",
      "outputs": [
        {
          "internalType": "uint256",
          "name": "playersId",
          "type": "uint256"
        },
        {
          "internalType": "uint256",
          "name": "winnerCount",
          "type": "uint256"
        }
      ],
      "stateMutability": "view",
      "type": "function",
      "constant": true
    },
    {
      "inputs": [
        {
          "internalType": "uint256",
          "name": "",
          "type": "uint256"
        }
      ],
      "name": "MonthlyWinnersArray",
      "outputs": [
        {
          "internalType": "address",
          "name": "",
          "type": "address"
        }
      ],
      "stateMutability": "view",
      "type": "function",
      "constant": true
    },
    {
      "inputs": [
        {
          "internalType": "uint256",
          "name": "",
          "type": "uint256"
        }
      ],
      "name": "MonthlyWinnersArrayPrizes",
      "outputs": [
        {
          "internalType": "uint256",
          "name": "",
          "type": "uint256"
        }
      ],
      "stateMutability": "view",
      "type": "function",
      "constant": true
    },
    {
      "inputs": [
        {
          "internalType": "address",
          "name": "",
          "type": "address"
        }
      ],
      "name": "MonthlyWinnersMap",
      "outputs": [
        {
          "internalType": "uint256",
          "name": "playersId",
          "type": "uint256"
        },
        {
          "internalType": "uint256",
          "name": "winnerCount",
          "type": "uint256"
        }
      ],
      "stateMutability": "view",
      "type": "function",
      "constant": true
    },
    {
      "inputs": [
        {
          "internalType": "uint256",
          "name": "",
          "type": "uint256"
        }
      ],
      "name": "WeeklyWinnersArray",
      "outputs": [
        {
          "internalType": "address",
          "name": "",
          "type": "address"
        }
      ],
      "stateMutability": "view",
      "type": "function",
      "constant": true
    },
    {
      "inputs": [
        {
          "internalType": "uint256",
          "name": "",
          "type": "uint256"
        }
      ],
      "name": "WeeklyWinnersArrayPrizes",
      "outputs": [
        {
          "internalType": "uint256",
          "name": "",
          "type": "uint256"
        }
      ],
      "stateMutability": "view",
      "type": "function",
      "constant": true
    },
    {
      "inputs": [
        {
          "internalType": "address",
          "name": "",
          "type": "address"
        }
      ],
      "name": "WeeklyWinnersMap",
      "outputs": [
        {
          "internalType": "uint256",
          "name": "playersId",
          "type": "uint256"
        },
        {
          "internalType": "uint256",
          "name": "winnerCount",
          "type": "uint256"
        }
      ],
      "stateMutability": "view",
      "type": "function",
      "constant": true
    },
    {
      "inputs": [
        {
          "internalType": "uint256",
          "name": "",
          "type": "uint256"
        }
      ],
      "name": "lotteries",
      "outputs": [
        {
          "internalType": "address",
          "name": "",
          "type": "address"
        }
      ],
      "stateMutability": "view",
      "type": "function",
      "constant": true
    },
    {
      "inputs": [],
      "name": "owner",
      "outputs": [
        {
          "internalType": "address",
          "name": "",
          "type": "address"
        }
      ],
      "stateMutability": "view",
      "type": "function",
      "constant": true
    },
    {
      "inputs": [],
      "name": "renounceOwnership",
      "outputs": [],
      "stateMutability": "nonpayable",
      "type": "function"
    },
    {
      "inputs": [
        {
          "internalType": "address",
          "name": "newOwner",
          "type": "address"
        }
      ],
      "name": "transferOwnership",
      "outputs": [],
      "stateMutability": "nonpayable",
      "type": "function"
    },
    {
      "stateMutability": "payable",
      "type": "receive",
      "payable": true
    },
    {
      "inputs": [],
      "name": "balanceInPot",
      "outputs": [
        {
          "internalType": "uint256",
          "name": "",
          "type": "uint256"
        }
      ],
      "stateMutability": "view",
      "type": "function",
      "constant": true
    },
    {
      "inputs": [],
      "name": "withdraw",
      "outputs": [],
      "stateMutability": "nonpayable",
      "type": "function"
    },
    {
      "inputs": [],
      "name": "close",
      "outputs": [],
      "stateMutability": "nonpayable",
      "type": "function"
    },
    {
      "inputs": [],
      "name": "getWinners",
      "outputs": [
        {
          "internalType": "address[]",
          "name": "",
          "type": "address[]"
        }
      ],
      "stateMutability": "view",
      "type": "function",
      "constant": true
    },
    {
      "inputs": [],
      "name": "getWeeklyWinners",
      "outputs": [
        {
          "internalType": "address[]",
          "name": "",
          "type": "address[]"
        }
      ],
      "stateMutability": "view",
      "type": "function",
      "constant": true
    },
    {
      "inputs": [],
      "name": "getMonthlyWinners",
      "outputs": [
        {
          "internalType": "address[]",
          "name": "",
          "type": "address[]"
        }
      ],
      "stateMutability": "view",
      "type": "function",
      "constant": true
    },
    {
      "inputs": [],
      "name": "getPotDirector",
      "outputs": [
        {
          "internalType": "address",
          "name": "",
          "type": "address"
        }
      ],
      "stateMutability": "view",
      "type": "function",
      "constant": true
    },
    {
      "inputs": [
        {
          "internalType": "address",
          "name": "_DirectorAddress",
          "type": "address"
        }
      ],
      "name": "setDirector",
      "outputs": [],
      "stateMutability": "nonpayable",
      "type": "function"
    },
    {
      "inputs": [
        {
          "internalType": "address",
          "name": "_lotteryAddress",
          "type": "address"
        },
        {
          "internalType": "address",
          "name": "_commander",
          "type": "address"
        },
        {
          "internalType": "uint256",
          "name": "_totalBalance",
          "type": "uint256"
        },
        {
          "internalType": "address",
          "name": "_winnerAddress",
          "type": "address"
        },
        {
          "internalType": "uint8",
          "name": "_lotteryType",
          "type": "uint8"
        }
      ],
      "name": "setlotteryStructs",
      "outputs": [
        {
          "internalType": "bool",
          "name": "",
          "type": "bool"
        }
      ],
      "stateMutability": "nonpayable",
      "type": "function"
    },
    {
      "inputs": [
        {
          "internalType": "address",
          "name": "_commander",
          "type": "address"
        },
        {
          "internalType": "address",
          "name": "_winnerAddress",
          "type": "address"
        },
        {
          "internalType": "uint256",
          "name": "_winnerPrize",
          "type": "uint256"
        }
      ],
      "name": "setlotteryWinnersArrayMap",
      "outputs": [
        {
          "internalType": "uint256",
          "name": "",
          "type": "uint256"
        }
      ],
      "stateMutability": "nonpayable",
      "type": "function"
    },
    {
      "inputs": [
        {
          "internalType": "address",
          "name": "_commander",
          "type": "address"
        },
        {
          "internalType": "address",
          "name": "_winnerAddress",
          "type": "address"
        },
        {
          "internalType": "uint256",
          "name": "_winnerPrize",
          "type": "uint256"
        }
      ],
      "name": "setWeeklyWinnersArrayMap",
      "outputs": [
        {
          "internalType": "uint256",
          "name": "",
          "type": "uint256"
        }
      ],
      "stateMutability": "nonpayable",
      "type": "function"
    },
    {
      "inputs": [
        {
          "internalType": "address",
          "name": "_commander",
          "type": "address"
        },
        {
          "internalType": "address",
          "name": "_winnerAddress",
          "type": "address"
        },
        {
          "internalType": "uint256",
          "name": "_winnerPrize",
          "type": "uint256"
        }
      ],
      "name": "setMonthlyWinnersArrayMap",
      "outputs": [
        {
          "internalType": "uint256",
          "name": "",
          "type": "uint256"
        }
      ],
      "stateMutability": "nonpayable",
      "type": "function"
    },
    {
      "inputs": [
        {
          "internalType": "address",
          "name": "_commander",
          "type": "address"
        }
      ],
      "name": "clearlotteryWinnersArrayMap",
      "outputs": [
        {
          "internalType": "bool",
          "name": "",
          "type": "bool"
        }
      ],
      "stateMutability": "nonpayable",
      "type": "function"
    },
    {
      "inputs": [
        {
          "internalType": "address",
          "name": "_commander",
          "type": "address"
        }
      ],
      "name": "clearWeeklyWinnersArrayMap",
      "outputs": [
        {
          "internalType": "bool",
          "name": "",
          "type": "bool"
        }
      ],
      "stateMutability": "nonpayable",
      "type": "function"
    },
    {
      "inputs": [
        {
          "internalType": "address",
          "name": "_commander",
          "type": "address"
        }
      ],
      "name": "clearMonthlyWinnersArrayMap",
      "outputs": [
        {
          "internalType": "bool",
          "name": "",
          "type": "bool"
        }
      ],
      "stateMutability": "nonpayable",
      "type": "function"
    },
    {
      "inputs": [],
      "name": "getAllContractAddresses",
      "outputs": [
        {
          "internalType": "address",
          "name": "hAddress",
          "type": "address"
        },
        {
          "internalType": "address",
          "name": "wAddress",
          "type": "address"
        },
        {
          "internalType": "address",
          "name": "mAddress",
          "type": "address"
        }
      ],
      "stateMutability": "view",
      "type": "function",
      "constant": true
    },
    {
      "inputs": [
        {
          "internalType": "address",
          "name": "_HourlyPotAddress",
          "type": "address"
        }
      ],
      "name": "set_HourlyPotAddress",
      "outputs": [],
      "stateMutability": "nonpayable",
      "type": "function"
    },
    {
      "inputs": [
        {
          "internalType": "address",
          "name": "_WeeklyPotAddress",
          "type": "address"
        }
      ],
      "name": "set_WeeklyPotAddress",
      "outputs": [],
      "stateMutability": "nonpayable",
      "type": "function"
    },
    {
      "inputs": [
        {
          "internalType": "address",
          "name": "_MonthlyPotAddress",
          "type": "address"
        }
      ],
      "name": "set_MonthlyPotAddress",
      "outputs": [],
      "stateMutability": "nonpayable",
      "type": "function"
    }
  ],
  "bytecode": "0x6080604052600780546001600160a01b03191673e04fcea66b0cb00f192eaba6262f0e4db90d3c0717905534801561003657600080fd5b5061004033610057565b600680546001600160a01b031916331790556100a7565b600080546001600160a01b038381166001600160a01b0319831681178455604051919092169283917f8be0079c531659141344cd1fd0a4f28419497f9722a3daafe3b4186f6b6457e09190a35050565b611883806100b66000396000f3fe6080604052600436106101cf5760003560e01c806354a1ec73116100f6578063a55b4f981161008f578063df15c37e11610061578063df15c37e146105c5578063f0446ecb146105da578063f2fde38b146105fa578063f67112391461061a57005b8063a55b4f9814610533578063b14a60b114610553578063befb0b8914610587578063c5ae6f3e146105a757005b806379bc3ad8116100c857806379bc3ad8146104b55780638da5cb5b146104d5578063a0f56934146104f3578063a35e151c1461051357005b806354a1ec731461042c578063614f6f871461044c578063653ea4391461046c578063715018a6146104a057005b80633305bd30116101685780633fa420c41161013a5780633fa420c4146103c257806343d726d6146103e25780634488d679146103f75780634c56018f1461040c57005b80633305bd301461032d578063330efa721461034d5780633b33b61a1461036d5780633ccfd60b146103ad57005b806326ba4319116101a157806326ba43191461029d578063277550e9146102bd57806328a1d4aa146102dd57806332f655fd146102fd57005b80631398e076146101d857806314e5998714610215578063195b6e9d146102325780631c1f53891461025457005b366101d657005b005b3480156101e457600080fd5b506101f86101f3366004611693565b61063a565b6040516001600160a01b0390911681526020015b60405180910390f35b34801561022157600080fd5b50475b60405190815260200161020c565b34801561023e57600080fd5b50610247610664565b60405161020c91906116ac565b34801561026057600080fd5b5061028861026f366004611715565b600a602052600090815260409020805460019091015482565b6040805192835260208301919091520161020c565b3480156102a957600080fd5b506101d66102b8366004611715565b6106c6565b3480156102c957600080fd5b506101f86102d8366004611693565b61075a565b3480156102e957600080fd5b506102246102f8366004611693565b61076a565b34801561030957600080fd5b5061031d610318366004611715565b61078b565b604051901515815260200161020c565b34801561033957600080fd5b5061031d610348366004611737565b6108d3565b34801561035957600080fd5b50610224610368366004611693565b610a66565b34801561037957600080fd5b50600154600254600354604080516001600160a01b039485168152928416602084015292169181019190915260600161020c565b3480156103b957600080fd5b506101d6610a76565b3480156103ce57600080fd5b506101d66103dd366004611715565b610aff565b3480156103ee57600080fd5b506101d6610b8e565b34801561040357600080fd5b50610247610bf7565b34801561041857600080fd5b5061022461042736600461179f565b610c57565b34801561043857600080fd5b5061031d610447366004611715565b610dc6565b34801561045857600080fd5b506101d6610467366004611715565b610f03565b34801561047857600080fd5b50610288610487366004611715565b600d602052600090815260409020805460019091015482565b3480156104ac57600080fd5b506101d6610f92565b3480156104c157600080fd5b506101d66104d0366004611715565b610ff8565b3480156104e157600080fd5b506000546001600160a01b03166101f8565b3480156104ff57600080fd5b5061022461050e36600461179f565b611087565b34801561051f57600080fd5b506101f861052e366004611693565b6111f6565b34801561053f57600080fd5b5061031d61054e366004611715565b611206565b34801561055f57600080fd5b5061028861056e366004611715565b6010602052600090815260409020805460019091015482565b34801561059357600080fd5b506102246105a236600461179f565b611343565b3480156105b357600080fd5b506007546001600160a01b03166101f8565b3480156105d157600080fd5b506102476114b2565b3480156105e657600080fd5b506102246105f5366004611693565b611512565b34801561060657600080fd5b506101d6610615366004611715565b611522565b34801561062657600080fd5b506101f8610635366004611693565b611601565b6004818154811061064a57600080fd5b6000918252602090912001546001600160a01b0316905081565b6060600e8054806020026020016040519081016040528092919081815260200182805480156106bc57602002820191906000526020600020905b81546001600160a01b0316815260019091019060200180831161069e575b5050505050905090565b6000546001600160a01b031633146107255760405162461bcd60e51b815260206004820181905260248201527f4f776e61626c653a2063616c6c6572206973206e6f7420746865206f776e657260448201526064015b60405180910390fd5b6001600160a01b03811661073857600080fd5b600780546001600160a01b0319166001600160a01b0392909216919091179055565b600e818154811061064a57600080fd5b600c818154811061077a57600080fd5b600091825260209091200154905081565b60075460009082906001600160a01b03808316911614806107b957506006546001600160a01b038281169116145b6108055760405162461bcd60e51b815260206004820152601c60248201527f284f776e657229205065726d697373696f6e2044656e69656420212100000000604482015260640161071c565b60015433906001600160a01b031681148061082d57506002546001600160a01b038281169116145b8061084557506003546001600160a01b038281169116145b61084e57600080fd5b6000805b600b54610861906001906117f1565b81116108bb57600b818154811061087a5761087a611808565b60009182526020808320909101546001600160a01b0316808352600d90915260408220828155600101919091559150806108b38161181e565b915050610852565b506108c8600b6000611661565b506001949350505050565b60075460009085906001600160a01b038083169116148061090157506006546001600160a01b038281169116145b61094d5760405162461bcd60e51b815260206004820152601c60248201527f284f776e657229205065726d697373696f6e2044656e69656420212100000000604482015260640161071c565b60015433906001600160a01b031681148061097557506002546001600160a01b038281169116145b8061098d57506003546001600160a01b038281169116145b61099657600080fd5b6001600160a01b03888116600090815260056020526040902060028101889055600390810180546001600160a01b0319169288169290921790915560ff8516908111156109e5576109e5611837565b6001600160a01b03891660009081526005602052604090206003908101805490917fffffffffffffffffffffff00ffffffffffffffffffffffffffffffffffffffff9091169074010000000000000000000000000000000000000000908490811115610a5357610a53611837565b0217905550600198975050505050505050565b6009818154811061077a57600080fd5b6000546001600160a01b03163314610ad05760405162461bcd60e51b815260206004820181905260248201527f4f776e61626c653a2063616c6c6572206973206e6f7420746865206f776e6572604482015260640161071c565b60405133904780156108fc02916000818181858888f19350505050158015610afc573d6000803e3d6000fd5b50565b6000546001600160a01b03163314610b595760405162461bcd60e51b815260206004820181905260248201527f4f776e61626c653a2063616c6c6572206973206e6f7420746865206f776e6572604482015260640161071c565b6001600160a01b038116610b6c57600080fd5b600280546001600160a01b0319166001600160a01b0392909216919091179055565b6000546001600160a01b03163314610be85760405162461bcd60e51b815260206004820181905260248201527f4f776e61626c653a2063616c6c6572206973206e6f7420746865206f776e6572604482015260640161071c565b6006546001600160a01b031680ff5b6060600b8054806020026020016040519081016040528092919081815260200182805480156106bc576020028201919060005260206000209081546001600160a01b0316815260019091019060200180831161069e575050505050905090565b60075460009084906001600160a01b0380831691161480610c8557506006546001600160a01b038281169116145b610cd15760405162461bcd60e51b815260206004820152601c60248201527f284f776e657229205065726d697373696f6e2044656e69656420212100000000604482015260640161071c565b60015433906001600160a01b0316811480610cf957506002546001600160a01b038281169116145b80610d1157506003546001600160a01b038281169116145b610d1a57600080fd5b600e8054600180820183557fbb7b4a454dc3493923482f07822329ed19e8244eff582cc204f8554c3620c3fd90910180546001600160a01b0319166001600160a01b038916908117909155600f80548084019091557f8d1108e10bcb7c27dddfc02ed9d693a074039d026cf4ea4240b40f7d581ac802018790559154600092835260106020526040832090815501805491610db48361181e565b9091555050600e549695505050505050565b60075460009082906001600160a01b0380831691161480610df457506006546001600160a01b038281169116145b610e405760405162461bcd60e51b815260206004820152601c60248201527f284f776e657229205065726d697373696f6e2044656e69656420212100000000604482015260640161071c565b60015433906001600160a01b0316811480610e6857506002546001600160a01b038281169116145b80610e8057506003546001600160a01b038281169116145b610e8957600080fd5b6000805b600854610e9c906001906117f1565b8111610ef65760088181548110610eb557610eb5611808565b60009182526020808320909101546001600160a01b0316808352600a9091526040822082815560010191909155915080610eee8161181e565b915050610e8d565b506108c860086000611661565b6000546001600160a01b03163314610f5d5760405162461bcd60e51b815260206004820181905260248201527f4f776e61626c653a2063616c6c6572206973206e6f7420746865206f776e6572604482015260640161071c565b6001600160a01b038116610f7057600080fd5b600380546001600160a01b0319166001600160a01b0392909216919091179055565b6000546001600160a01b03163314610fec5760405162461bcd60e51b815260206004820181905260248201527f4f776e61626c653a2063616c6c6572206973206e6f7420746865206f776e6572604482015260640161071c565b610ff66000611611565b565b6000546001600160a01b031633146110525760405162461bcd60e51b815260206004820181905260248201527f4f776e61626c653a2063616c6c6572206973206e6f7420746865206f776e6572604482015260640161071c565b6001600160a01b03811661106557600080fd5b600180546001600160a01b0319166001600160a01b0392909216919091179055565b60075460009084906001600160a01b03808316911614806110b557506006546001600160a01b038281169116145b6111015760405162461bcd60e51b815260206004820152601c60248201527f284f776e657229205065726d697373696f6e2044656e69656420212100000000604482015260640161071c565b60015433906001600160a01b031681148061112957506002546001600160a01b038281169116145b8061114157506003546001600160a01b038281169116145b61114a57600080fd5b60088054600180820183557ff3f7a9fe364faab93b216da50a3214154f22a0a2b415b23a84c8169e8b636ee390910180546001600160a01b0319166001600160a01b038916908117909155600980548084019091557f6e1540171b6c0c960b71a7020d9f60077f6af931a8bbf590da0223dacf75c7af0187905591546000928352600a60205260408320908155018054916111e48361181e565b90915550506008549695505050505050565b600b818154811061064a57600080fd5b60075460009082906001600160a01b038083169116148061123457506006546001600160a01b038281169116145b6112805760405162461bcd60e51b815260206004820152601c60248201527f284f776e657229205065726d697373696f6e2044656e69656420212100000000604482015260640161071c565b60015433906001600160a01b03168114806112a857506002546001600160a01b038281169116145b806112c057506003546001600160a01b038281169116145b6112c957600080fd5b6000805b600e546112dc906001906117f1565b811161133657600e81815481106112f5576112f5611808565b60009182526020808320909101546001600160a01b03168083526010909152604082208281556001019190915591508061132e8161181e565b9150506112cd565b506108c8600e6000611661565b60075460009084906001600160a01b038083169116148061137157506006546001600160a01b038281169116145b6113bd5760405162461bcd60e51b815260206004820152601c60248201527f284f776e657229205065726d697373696f6e2044656e69656420212100000000604482015260640161071c565b60015433906001600160a01b03168114806113e557506002546001600160a01b038281169116145b806113fd57506003546001600160a01b038281169116145b61140657600080fd5b600b8054600180820183557f0175b7a638427703f0dbe7bb9bbf987a2551717b34e79f33b5b1008d1fa01db990910180546001600160a01b0319166001600160a01b038916908117909155600c80548084019091557fdf6966c971051c3d54ec59162606531493a51404a002842f56009d7e5cf4a8c70187905591546000928352600d60205260408320908155018054916114a08361181e565b9091555050600b549695505050505050565b606060088054806020026020016040519081016040528092919081815260200182805480156106bc576020028201919060005260206000209081546001600160a01b0316815260019091019060200180831161069e575050505050905090565b600f818154811061077a57600080fd5b6000546001600160a01b0316331461157c5760405162461bcd60e51b815260206004820181905260248201527f4f776e61626c653a2063616c6c6572206973206e6f7420746865206f776e6572604482015260640161071c565b6001600160a01b0381166115f85760405162461bcd60e51b815260206004820152602660248201527f4f776e61626c653a206e6577206f776e657220697320746865207a65726f206160448201527f6464726573730000000000000000000000000000000000000000000000000000606482015260840161071c565b610afc81611611565b6008818154811061064a57600080fd5b600080546001600160a01b038381166001600160a01b0319831681178455604051919092169283917f8be0079c531659141344cd1fd0a4f28419497f9722a3daafe3b4186f6b6457e09190a35050565b5080546000825590600052602060002090810190610afc91905b8082111561168f576000815560010161167b565b5090565b6000602082840312156116a557600080fd5b5035919050565b6020808252825182820181905260009190848201906040850190845b818110156116ed5783516001600160a01b0316835292840192918401916001016116c8565b50909695505050505050565b80356001600160a01b038116811461171057600080fd5b919050565b60006020828403121561172757600080fd5b611730826116f9565b9392505050565b600080600080600060a0868803121561174f57600080fd5b611758866116f9565b9450611766602087016116f9565b93506040860135925061177b606087016116f9565b9150608086013560ff8116811461179157600080fd5b809150509295509295909350565b6000806000606084860312156117b457600080fd5b6117bd846116f9565b92506117cb602085016116f9565b9150604084013590509250925092565b634e487b7160e01b600052601160045260246000fd5b600082821015611803576118036117db565b500390565b634e487b7160e01b600052603260045260246000fd5b600060018201611830576118306117db565b5060010190565b634e487b7160e01b600052602160045260246000fdfea2646970667358221220998b0b4d897ee0676b35197f641728dd3b6b6134d496791e02bb2c76fc91661e64736f6c634300080d0033",
  "immutableReferences": {},
  "source": "// SPDX-License-Identifier: GNU-GPLv3\npragma solidity ^0.8.0;\n\nimport \"@openzeppelin/contracts/access/Ownable.sol\";\n\n// import \"truffle/Console.sol\";\n// import \"hardhat/console.sol\";  // Work in Local-Test in Remix\n\nimport \"./LotteryCore.sol\";\n\n\n/**\n  * @title Lottery Generator Smart Contract.\n  * @author Batis Abhari (https://github.com/baties - ContactMe: abhari_Batis@hotmail.com)\n  * @notice This SmartContract will be responsible for Lottery Generation in next Versions.\n  * @dev Lottery Generator SmartContract - Parent of All Lottery MOdules - Also The Lottery DataBase is Here !\n*/\ncontract LotteryGenerator is Ownable {\n\n    // uint constant TICKET_PRICE = 10 * 1e15; // finney (0.01 Ether)\n\n    enum LType {\n        Hourly,\n        Daily,\n        Weekly,\n        Monthly\n    }\n\n    address private HourlyPotAddress;\n    address private WeeklyPotAddress;\n    address private MonthlyPotAddress;   \n\n    address[] public lotteries;\n    struct lottery{\n        uint index;\n        address creator;\n        uint totalBalance;\n        address winnerAddress; \n        LType lotteryType;\n    }\n    mapping(address => lottery) lotteryStructs;\n\n    address private LotteryOwner;\n    address private potDirector=0xE04fCeA66B0Cb00F192eABa6262f0e4DB90D3C07;  \n\n    address[] public LotteryWinnersArray;\n    uint[] public LotteryWinnersArrayPrizes;\n    struct LotteryWinnerStr{\n        uint playersId;\n        uint winnerCount;\n    }\n    mapping (address => LotteryWinnerStr) public LotteryWinnersMap;\n\n    address[] public WeeklyWinnersArray;\n    uint[] public WeeklyWinnersArrayPrizes;\n    struct WeeklyWinnerStr{\n        uint playersId;\n        uint winnerCount;\n    }\n    mapping (address => WeeklyWinnerStr) public WeeklyWinnersMap;\n\n    address[] public MonthlyWinnersArray;\n    uint[] public MonthlyWinnersArrayPrizes;\n    struct MonthlyWinnerStr{\n        uint playersId;\n        uint winnerCount;\n    }\n    mapping (address => MonthlyWinnerStr) public MonthlyWinnersMap;\n\n    // event\n    event LotteryCreated(address newLottery);\n    event LogDepositReceived(address sender, uint value);\n\n    constructor() {   \n        LotteryOwner = msg.sender;\n    }\n\n\n  /* ToDo : Add & Complete Fallback routine */\n    fallback() external payable {\n    }\n\n    receive() external payable {\n    }\n\n    modifier isAllowedManager() {\n        require( msg.sender == potDirector || msg.sender == LotteryOwner , \"(Manager) Permission Denied !!\" );\n        _;\n    }\n\n    modifier isAllowedOwner(address _caller) {\n        require( _caller == potDirector || _caller == LotteryOwner , \"(Owner) Permission Denied !!\" );\n        _;\n    }\n\n    modifier isAllowedCaller(address _caller){\n        require( (_caller == HourlyPotAddress) || (_caller == WeeklyPotAddress) || (_caller == MonthlyPotAddress) );\n        _;\n    }\n\n    function balanceInPot() public view returns(uint){\n        return address(this).balance;\n    }\n\n    function withdraw() external onlyOwner {\n        payable(msg.sender).transfer(address(this).balance);\n    }\n\n    function close() public onlyOwner { \n        address payable addr = payable(address(LotteryOwner));  // owner\n        selfdestruct(addr); \n    }\n\n    /**\n        * @notice Get The Total List of Hourly Lottery Winners Wallet Addresses\n        * @return Hourly Lottery Winners Array List\n    */\n    function getWinners() external view returns(address[] memory) {\n        return LotteryWinnersArray;\n    }\n\n    /**\n        * @notice Get the List of Weekly Winners Wallet Addresses\n        * @return Weekly Lottery Winners Array List\n    */\n    function getWeeklyWinners() external view returns(address[] memory) {\n        return WeeklyWinnersArray;\n    }\n\n    /**\n        * @notice Get the List of Monthly Winners Wallet Addresses\n        * @return Monthly Lottery Winners Array List\n    */\n    function getMonthlyWinners() external view returns(address[] memory) {\n        return MonthlyWinnersArray;\n    }\n\n    /**\n        * @notice Get The Address of Current Pot Director (Pot Manager)\n        * @return The Current Pot Director \n    */\n    function getPotDirector() public view returns(address) {\n        return potDirector;\n    }\n\n    /**\n        * @notice Set or Change The Address of Current Pot Director (Pot Manager)\n        * @dev This function is Set a Pot Manager and Only should be called by the Owner\n    */\n    function setDirector(address _DirectorAddress) external onlyOwner {\n        require(_DirectorAddress != address(0) );\n        potDirector = _DirectorAddress;\n    }\n\n  /**\n    * @notice Save All (Hourly, Daily, Weekly & Monthly) Lotteries' Important Data in One Place.\n    * @dev A struct with Hourly, Daily, Weekly & Monthly Lotteries Data.\n    * @param _lotteryAddress : Address of Lottery .\n    * @param _commander : The Address of Owner or Lottery Manager Which are the Only Allowed addresses for Running This Function.  \n    * @param _totalBalance : Total Balance in this Lottery .\n    * @param _winnerAddress : The Lottery Winner Wallet Address. \n    * @param _lotteryType : Type of Lottery (Hourly - Daily - Weekly - Monthly)\n    * @return True\n  */\n    function setlotteryStructs(address _lotteryAddress, address _commander, uint _totalBalance, address _winnerAddress, uint8 _lotteryType) external isAllowedOwner(_commander) isAllowedCaller(msg.sender) returns (bool) {\n        lotteryStructs[_lotteryAddress].totalBalance = _totalBalance;\n        lotteryStructs[_lotteryAddress].winnerAddress = _winnerAddress;\n        lotteryStructs[_lotteryAddress].lotteryType = LType(_lotteryType);\n        return true;\n    }\n\n  /**\n    * @notice Save All Hourly Lotteries' Important Data \n    * @dev Save Hourly Data into Hourly Lottery Array & Hourly Lottery Map.\n    * @param _commander : The Address of Owner or Lottery Manager Which are the Only Allowed addresses for Running This Function.\n    * @param _winnerAddress : The Hourly Lottery Winner Wallet Address. \n    * @param _winnerPrize : The Amount of Hourly Lottery Winner's Prize .\n    * @return LotteryWinnerArray Lengh\n  */\n    function setlotteryWinnersArrayMap(address _commander, address _winnerAddress, uint _winnerPrize) external isAllowedOwner(_commander) isAllowedCaller(msg.sender) returns (uint) {\n        LotteryWinnersArray.push(_winnerAddress);\n        LotteryWinnersArrayPrizes.push(_winnerPrize);\n        LotteryWinnersMap[_winnerAddress].playersId = LotteryWinnersArray.length;  // -1\n        LotteryWinnersMap[_winnerAddress].winnerCount++;\n        return LotteryWinnersArray.length ;  // -1\n    }\n\n  /**\n    * @notice Save All Weekly Lotteries' Important Data \n    * @dev Save Weekly Data into Weekly Lottery Array & Weekly Lottery Map.\n    * @param _commander : The Address of Owner or Lottery Manager Which are the Only Allowed addresses for Running This Function.  \n    * @param _winnerAddress : The Weekly Lottery Winner Wallet Address. \n    * @param _winnerPrize : The Amount of Weekly Lottery Winner's Prize .\n    * @return WeeklyWinnerArray Lengh\n  */\n    function setWeeklyWinnersArrayMap(address _commander, address _winnerAddress, uint _winnerPrize) external isAllowedOwner(_commander) isAllowedCaller(msg.sender) returns (uint) {\n        WeeklyWinnersArray.push(_winnerAddress);\n        WeeklyWinnersArrayPrizes.push(_winnerPrize);\n        WeeklyWinnersMap[_winnerAddress].playersId = WeeklyWinnersArray.length;  // -1\n        WeeklyWinnersMap[_winnerAddress].winnerCount++;\n        return WeeklyWinnersArray.length ;  // -1\n    }\n\n  /**\n    * @notice Save All Monthly Lotteries' Important Data \n    * @dev Save Monthly Data into Monthly Lottery Array & Monthly Lottery Map.\n    * @param _commander : The Address of Owner or Lottery Manager Which are the Only Allowed addresses for Running This Function.  \n    * @param _winnerAddress : The Monthly Lottery Winner Wallet Address. \n    * @param _winnerPrize : The Amount of Monthly Lottery Winner's Prize .\n    * @return MonthlyWinnerArray Lengh\n  */\n    function setMonthlyWinnersArrayMap(address _commander, address _winnerAddress, uint _winnerPrize) external isAllowedOwner(_commander) isAllowedCaller(msg.sender) returns (uint) {\n        MonthlyWinnersArray.push(_winnerAddress);\n        MonthlyWinnersArrayPrizes.push(_winnerPrize);\n        MonthlyWinnersMap[_winnerAddress].playersId = MonthlyWinnersArray.length;  // -1\n        MonthlyWinnersMap[_winnerAddress].winnerCount++;\n        return MonthlyWinnersArray.length ;  // -1\n    }\n\n  /**\n    * @notice Clear Lottery Winner Array & Map Data \n    * @dev Clear Lottery Winner Array & Map Data and Releasing the Memory.\n    * @param _commander : The Address of Owner or Lottery Manager Which are the Only Allowed addresses for Running This Function.  \n    * @return True\n  */\n    function clearlotteryWinnersArrayMap(address _commander) external isAllowedOwner(_commander) isAllowedCaller(msg.sender) returns (bool) {\n        address _lotteryWinAddress;\n        for (uint256 index = 0; index <= LotteryWinnersArray.length - 1; index++) {\n            _lotteryWinAddress = LotteryWinnersArray[index];\n            // if (LotteryWinnersMap[_lotteryWinAddress].playersId > 0) {\n            //     LotteryWinnersMap[_lotteryWinAddress].playersId = 0;\n            //     LotteryWinnersMap[_lotteryWinAddress].winnerCount = 0;\n            // }\n            delete LotteryWinnersMap[_lotteryWinAddress];\n        }\n        delete LotteryWinnersArray;\n        return true;\n    }\n\n  /**\n    * @notice Clear Weekly Lottery Winner Array & Map Data \n    * @dev Clear Weekly Lottery Winner Array & Map Data and Releasing the Memory.\n    * @param _commander : The Address of Owner or Lottery Manager Which are the Only Allowed addresses for Running This Function.  \n    * @return True\n  */\n    function clearWeeklyWinnersArrayMap(address _commander) external isAllowedOwner(_commander) isAllowedCaller(msg.sender) returns (bool) {\n        address _lotteryWinAddress;\n        for (uint256 index = 0; index <= WeeklyWinnersArray.length - 1; index++) {\n            _lotteryWinAddress = WeeklyWinnersArray[index];\n            // if (WeeklyWinnersMap[_lotteryWinAddress].playersId > 0) {\n            //     WeeklyWinnersMap[_lotteryWinAddress].playersId = 0;\n            //     WeeklyWinnersMap[_lotteryWinAddress].winnerCount = 0;\n            // }\n            delete WeeklyWinnersMap[_lotteryWinAddress];\n        }\n        delete WeeklyWinnersArray;\n        return true;\n    }\n\n  /**\n    * @notice Clear Monthly Lottery Winner Array & Map Data \n    * @dev Clear MOnthly Lottery Winner Array & Map Data and Releasing the Memory.\n    * @param _commander : The Address of Owner or Lottery Manager Which are the Only Allowed addresses for Running This Function.  \n    * @return True\n  */\n    function clearMonthlyWinnersArrayMap(address _commander) external isAllowedOwner(_commander) isAllowedCaller(msg.sender) returns (bool) {\n        address _lotteryWinAddress;\n        for (uint256 index = 0; index <= MonthlyWinnersArray.length - 1; index++) {\n            _lotteryWinAddress = MonthlyWinnersArray[index];\n            // if (MonthlyWinnersMap[_lotteryWinAddress].playersId > 0) {\n            //     MonthlyWinnersMap[_lotteryWinAddress].playersId = 0;\n            //     MonthlyWinnersMap[_lotteryWinAddress].winnerCount = 0;\n            // }\n            delete MonthlyWinnersMap[_lotteryWinAddress];\n        }\n        delete MonthlyWinnersArray;\n        return true;\n    }\n\n    function getAllContractAddresses() public view returns(address hAddress, address wAddress, address mAddress) {\n        hAddress = HourlyPotAddress ;\n        wAddress = WeeklyPotAddress ;\n        mAddress = MonthlyPotAddress ;\n        return (hAddress, wAddress, mAddress); \n    }\n\n    function set_HourlyPotAddress(address _HourlyPotAddress) external onlyOwner {\n        require(_HourlyPotAddress != address(0) );\n        HourlyPotAddress = _HourlyPotAddress;\n    }\n\n    function set_WeeklyPotAddress(address _WeeklyPotAddress) external onlyOwner {\n        require(_WeeklyPotAddress != address(0) );\n        WeeklyPotAddress = _WeeklyPotAddress;\n    }\n\n    function set_MonthlyPotAddress(address _MonthlyPotAddress) external onlyOwner {\n        require(_MonthlyPotAddress != address(0) );\n        MonthlyPotAddress = _MonthlyPotAddress;\n    }\n\n    /*\n    function createLottery(address _VRF, address weeklyAddr, address monthlyAddr, address liquidityAddr) public onlyOwner {\n\n        address generatorAddress = address(this);\n\n        // require(bytes(name).length > 0);\n        address newLottery = address(new LotteryCore(_VRF, generatorAddress, weeklyAddr, monthlyAddr, liquidityAddr));\n        lotteries.push(newLottery);\n        lotteryStructs[newLottery].index = lotteries.length - 1;\n        lotteryStructs[newLottery].creator = msg.sender;\n        lotteryStructs[newLottery].totalBalance = 0;\n        lotteryStructs[newLottery].winnerAddress = address(0);\n\n        emit LotteryCreated( newLottery );\n    }\n\n    function deleteLottery(address lotteryAddress) public  onlyOwner {\n        require(msg.sender == lotteryStructs[lotteryAddress].creator);\n        uint indexToDelete = lotteryStructs[lotteryAddress].index;\n        address lastAddress = lotteries[lotteries.length - 1];\n        lotteries[indexToDelete] = lastAddress;\n        // lotteries.length --;\n    }\n    */\n\n    // function getLotteries() public view returns(address[]) {\n    //     return lotteries;\n    // }\n\n    // event LotteryCreated(\n    //     address lotteryAddress\n    // );\n}\n\n\n\n",
  "sourcePath": "/home/batis/SrcCode/myPRJ/SmartContBlockChain/HourlyLotto/BSCLottery-1/contracts/LotteryGenerator.sol",
  "compiler": {
    "name": "solc",
    "version": "0.8.13+commit.abaa5c0e.Emscripten.clang"
  },
  "schemaVersion": "3.4.8",
  "updatedAt": "2022-07-31T11:48:54.855Z",
  "networkType": "ethereum",
  "devdoc": {
    "author": "Batis Abhari (https://github.com/baties - ContactMe: abhari_Batis@hotmail.com)",
    "details": "Lottery Generator SmartContract - Parent of All Lottery MOdules - Also The Lottery DataBase is Here !",
    "kind": "dev",
    "methods": {
      "clearMonthlyWinnersArrayMap(address)": {
        "details": "Clear MOnthly Lottery Winner Array & Map Data and Releasing the Memory.",
        "params": {
          "_commander": ": The Address of Owner or Lottery Manager Which are the Only Allowed addresses for Running This Function.  "
        },
        "returns": {
          "_0": "True"
        }
      },
      "clearWeeklyWinnersArrayMap(address)": {
        "details": "Clear Weekly Lottery Winner Array & Map Data and Releasing the Memory.",
        "params": {
          "_commander": ": The Address of Owner or Lottery Manager Which are the Only Allowed addresses for Running This Function.  "
        },
        "returns": {
          "_0": "True"
        }
      },
      "clearlotteryWinnersArrayMap(address)": {
        "details": "Clear Lottery Winner Array & Map Data and Releasing the Memory.",
        "params": {
          "_commander": ": The Address of Owner or Lottery Manager Which are the Only Allowed addresses for Running This Function.  "
        },
        "returns": {
          "_0": "True"
        }
      },
      "getMonthlyWinners()": {
        "returns": {
          "_0": "Monthly Lottery Winners Array List"
        }
      },
      "getPotDirector()": {
        "returns": {
          "_0": "The Current Pot Director "
        }
      },
      "getWeeklyWinners()": {
        "returns": {
          "_0": "Weekly Lottery Winners Array List"
        }
      },
      "getWinners()": {
        "returns": {
          "_0": "Hourly Lottery Winners Array List"
        }
      },
      "owner()": {
        "details": "Returns the address of the current owner."
      },
      "renounceOwnership()": {
        "details": "Leaves the contract without owner. It will not be possible to call `onlyOwner` functions anymore. Can only be called by the current owner. NOTE: Renouncing ownership will leave the contract without an owner, thereby removing any functionality that is only available to the owner."
      },
      "setDirector(address)": {
        "details": "This function is Set a Pot Manager and Only should be called by the Owner"
      },
      "setMonthlyWinnersArrayMap(address,address,uint256)": {
        "details": "Save Monthly Data into Monthly Lottery Array & Monthly Lottery Map.",
        "params": {
          "_commander": ": The Address of Owner or Lottery Manager Which are the Only Allowed addresses for Running This Function.  ",
          "_winnerAddress": ": The Monthly Lottery Winner Wallet Address. ",
          "_winnerPrize": ": The Amount of Monthly Lottery Winner's Prize ."
        },
        "returns": {
          "_0": "MonthlyWinnerArray Lengh"
        }
      },
      "setWeeklyWinnersArrayMap(address,address,uint256)": {
        "details": "Save Weekly Data into Weekly Lottery Array & Weekly Lottery Map.",
        "params": {
          "_commander": ": The Address of Owner or Lottery Manager Which are the Only Allowed addresses for Running This Function.  ",
          "_winnerAddress": ": The Weekly Lottery Winner Wallet Address. ",
          "_winnerPrize": ": The Amount of Weekly Lottery Winner's Prize ."
        },
        "returns": {
          "_0": "WeeklyWinnerArray Lengh"
        }
      },
      "setlotteryStructs(address,address,uint256,address,uint8)": {
        "details": "A struct with Hourly, Daily, Weekly & Monthly Lotteries Data.",
        "params": {
          "_commander": ": The Address of Owner or Lottery Manager Which are the Only Allowed addresses for Running This Function.  ",
          "_lotteryAddress": ": Address of Lottery .",
          "_lotteryType": ": Type of Lottery (Hourly - Daily - Weekly - Monthly)",
          "_totalBalance": ": Total Balance in this Lottery .",
          "_winnerAddress": ": The Lottery Winner Wallet Address. "
        },
        "returns": {
          "_0": "True"
        }
      },
      "setlotteryWinnersArrayMap(address,address,uint256)": {
        "details": "Save Hourly Data into Hourly Lottery Array & Hourly Lottery Map.",
        "params": {
          "_commander": ": The Address of Owner or Lottery Manager Which are the Only Allowed addresses for Running This Function.",
          "_winnerAddress": ": The Hourly Lottery Winner Wallet Address. ",
          "_winnerPrize": ": The Amount of Hourly Lottery Winner's Prize ."
        },
        "returns": {
          "_0": "LotteryWinnerArray Lengh"
        }
      },
      "transferOwnership(address)": {
        "details": "Transfers ownership of the contract to a new account (`newOwner`). Can only be called by the current owner."
      }
    },
    "title": "Lottery Generator Smart Contract.",
    "version": 1
  },
  "userdoc": {
    "kind": "user",
    "methods": {
      "clearMonthlyWinnersArrayMap(address)": {
        "notice": "Clear Monthly Lottery Winner Array & Map Data "
      },
      "clearWeeklyWinnersArrayMap(address)": {
        "notice": "Clear Weekly Lottery Winner Array & Map Data "
      },
      "clearlotteryWinnersArrayMap(address)": {
        "notice": "Clear Lottery Winner Array & Map Data "
      },
      "getMonthlyWinners()": {
        "notice": "Get the List of Monthly Winners Wallet Addresses"
      },
      "getPotDirector()": {
        "notice": "Get The Address of Current Pot Director (Pot Manager)"
      },
      "getWeeklyWinners()": {
        "notice": "Get the List of Weekly Winners Wallet Addresses"
      },
      "getWinners()": {
        "notice": "Get The Total List of Hourly Lottery Winners Wallet Addresses"
      },
      "setDirector(address)": {
        "notice": "Set or Change The Address of Current Pot Director (Pot Manager)"
      },
      "setMonthlyWinnersArrayMap(address,address,uint256)": {
        "notice": "Save All Monthly Lotteries' Important Data "
      },
      "setWeeklyWinnersArrayMap(address,address,uint256)": {
        "notice": "Save All Weekly Lotteries' Important Data "
      },
      "setlotteryStructs(address,address,uint256,address,uint8)": {
        "notice": "Save All (Hourly, Daily, Weekly & Monthly) Lotteries' Important Data in One Place."
      },
      "setlotteryWinnersArrayMap(address,address,uint256)": {
        "notice": "Save All Hourly Lotteries' Important Data "
      }
    },
    "notice": "This SmartContract will be responsible for Lottery Generation in next Versions.",
    "version": 1
  }
}