{
  "contractName": "MonthlyLottery",
  "abi": [
    {
      "inputs": [
        {
          "internalType": "uint64",
          "name": "subscriptionId",
          "type": "uint64"
        },
        {
          "internalType": "address",
          "name": "generatorLotteryAddress",
          "type": "address"
        }
      ],
      "stateMutability": "nonpayable",
      "type": "constructor"
    },
    {
      "inputs": [
        {
          "internalType": "address",
          "name": "have",
          "type": "address"
        },
        {
          "internalType": "address",
          "name": "want",
          "type": "address"
        }
      ],
      "name": "OnlyCoordinatorCanFulfill",
      "type": "error"
    },
    {
      "anonymous": false,
      "inputs": [
        {
          "indexed": false,
          "internalType": "address",
          "name": "sender",
          "type": "address"
        },
        {
          "indexed": false,
          "internalType": "uint256",
          "name": "value",
          "type": "uint256"
        }
      ],
      "name": "LogDepositReceived",
      "type": "event"
    },
    {
      "anonymous": false,
      "inputs": [
        {
          "indexed": true,
          "internalType": "address",
          "name": "previousOwner",
          "type": "address"
        },
        {
          "indexed": true,
          "internalType": "address",
          "name": "newOwner",
          "type": "address"
        }
      ],
      "name": "OwnershipTransferred",
      "type": "event"
    },
    {
      "anonymous": false,
      "inputs": [
        {
          "indexed": false,
          "internalType": "bool",
          "name": "isReadySelectWinner",
          "type": "bool"
        }
      ],
      "name": "ReadyForSelectWinner",
      "type": "event"
    },
    {
      "anonymous": false,
      "inputs": [
        {
          "indexed": false,
          "internalType": "address",
          "name": "potWinner",
          "type": "address"
        },
        {
          "indexed": false,
          "internalType": "uint256",
          "name": "winnerPrize",
          "type": "uint256"
        }
      ],
      "name": "SelectWinnerAddress",
      "type": "event"
    },
    {
      "anonymous": false,
      "inputs": [
        {
          "indexed": false,
          "internalType": "uint256",
          "name": "winnerIndex",
          "type": "uint256"
        },
        {
          "indexed": false,
          "internalType": "uint256",
          "name": "potBalance",
          "type": "uint256"
        },
        {
          "indexed": false,
          "internalType": "uint256",
          "name": "winnerPrize",
          "type": "uint256"
        }
      ],
      "name": "SelectWinnerIndex",
      "type": "event"
    },
    {
      "anonymous": false,
      "inputs": [
        {
          "indexed": false,
          "internalType": "uint256",
          "name": "vrfCalledTime",
          "type": "uint256"
        }
      ],
      "name": "StartSelectngWinner",
      "type": "event"
    },
    {
      "anonymous": false,
      "inputs": [
        {
          "indexed": false,
          "internalType": "address",
          "name": "receiver",
          "type": "address"
        },
        {
          "indexed": false,
          "internalType": "uint256",
          "name": "TrxValue",
          "type": "uint256"
        }
      ],
      "name": "TotalPayment",
      "type": "event"
    },
    {
      "stateMutability": "payable",
      "type": "fallback",
      "payable": true
    },
    {
      "inputs": [],
      "name": "owner",
      "outputs": [
        {
          "internalType": "address",
          "name": "",
          "type": "address"
        }
      ],
      "stateMutability": "view",
      "type": "function",
      "constant": true
    },
    {
      "inputs": [],
      "name": "potWinnerPrize",
      "outputs": [
        {
          "internalType": "uint256",
          "name": "",
          "type": "uint256"
        }
      ],
      "stateMutability": "view",
      "type": "function",
      "constant": true
    },
    {
      "inputs": [
        {
          "internalType": "uint256",
          "name": "requestId",
          "type": "uint256"
        },
        {
          "internalType": "uint256[]",
          "name": "randomWords",
          "type": "uint256[]"
        }
      ],
      "name": "rawFulfillRandomWords",
      "outputs": [],
      "stateMutability": "nonpayable",
      "type": "function"
    },
    {
      "inputs": [],
      "name": "renounceOwnership",
      "outputs": [],
      "stateMutability": "nonpayable",
      "type": "function"
    },
    {
      "inputs": [
        {
          "internalType": "uint256",
          "name": "",
          "type": "uint256"
        }
      ],
      "name": "s_randomWords",
      "outputs": [
        {
          "internalType": "uint256",
          "name": "",
          "type": "uint256"
        }
      ],
      "stateMutability": "view",
      "type": "function",
      "constant": true
    },
    {
      "inputs": [],
      "name": "s_requestId",
      "outputs": [
        {
          "internalType": "uint256",
          "name": "",
          "type": "uint256"
        }
      ],
      "stateMutability": "view",
      "type": "function",
      "constant": true
    },
    {
      "inputs": [
        {
          "internalType": "address",
          "name": "newOwner",
          "type": "address"
        }
      ],
      "name": "transferOwnership",
      "outputs": [],
      "stateMutability": "nonpayable",
      "type": "function"
    },
    {
      "stateMutability": "payable",
      "type": "receive",
      "payable": true
    },
    {
      "inputs": [],
      "name": "balanceInPot",
      "outputs": [
        {
          "internalType": "uint256",
          "name": "",
          "type": "uint256"
        }
      ],
      "stateMutability": "view",
      "type": "function",
      "constant": true
    },
    {
      "inputs": [],
      "name": "withdraw",
      "outputs": [],
      "stateMutability": "nonpayable",
      "type": "function"
    },
    {
      "inputs": [],
      "name": "close",
      "outputs": [],
      "stateMutability": "nonpayable",
      "type": "function"
    },
    {
      "inputs": [],
      "name": "potInitialize",
      "outputs": [
        {
          "internalType": "bool",
          "name": "success",
          "type": "bool"
        }
      ],
      "stateMutability": "nonpayable",
      "type": "function"
    },
    {
      "inputs": [],
      "name": "potPause",
      "outputs": [
        {
          "internalType": "bool",
          "name": "success",
          "type": "bool"
        }
      ],
      "stateMutability": "nonpayable",
      "type": "function"
    },
    {
      "inputs": [],
      "name": "select_Winner",
      "outputs": [
        {
          "internalType": "bool",
          "name": "success",
          "type": "bool"
        }
      ],
      "stateMutability": "nonpayable",
      "type": "function"
    },
    {
      "inputs": [],
      "name": "select_Winner_Continue",
      "outputs": [
        {
          "internalType": "bool",
          "name": "success",
          "type": "bool"
        }
      ],
      "stateMutability": "nonpayable",
      "type": "function"
    },
    {
      "inputs": [],
      "name": "planB_VRFDelay",
      "outputs": [
        {
          "internalType": "bool",
          "name": "isActive",
          "type": "bool"
        }
      ],
      "stateMutability": "nonpayable",
      "type": "function"
    },
    {
      "inputs": [],
      "name": "getWeeklyWinnersArray",
      "outputs": [
        {
          "internalType": "address[]",
          "name": "",
          "type": "address[]"
        }
      ],
      "stateMutability": "view",
      "type": "function",
      "constant": true
    },
    {
      "inputs": [
        {
          "internalType": "address",
          "name": "_contractAddr",
          "type": "address"
        }
      ],
      "name": "set_generatorLotteryAddress",
      "outputs": [],
      "stateMutability": "nonpayable",
      "type": "function"
    },
    {
      "inputs": [
        {
          "internalType": "address",
          "name": "_DirectorAddress",
          "type": "address"
        }
      ],
      "name": "setDirector",
      "outputs": [],
      "stateMutability": "nonpayable",
      "type": "function"
    },
    {
      "inputs": [],
      "name": "listPlayers",
      "outputs": [
        {
          "internalType": "address[]",
          "name": "",
          "type": "address[]"
        }
      ],
      "stateMutability": "view",
      "type": "function",
      "constant": true
    },
    {
      "inputs": [],
      "name": "isPotActive",
      "outputs": [
        {
          "internalType": "bool",
          "name": "",
          "type": "bool"
        }
      ],
      "stateMutability": "view",
      "type": "function",
      "constant": true
    },
    {
      "inputs": [],
      "name": "getPlayersNumber",
      "outputs": [
        {
          "internalType": "uint256",
          "name": "",
          "type": "uint256"
        }
      ],
      "stateMutability": "view",
      "type": "function",
      "constant": true
    },
    {
      "inputs": [],
      "name": "getWinners",
      "outputs": [
        {
          "internalType": "address",
          "name": "",
          "type": "address"
        },
        {
          "internalType": "uint256",
          "name": "",
          "type": "uint256"
        }
      ],
      "stateMutability": "view",
      "type": "function",
      "constant": true
    },
    {
      "inputs": [],
      "name": "isReadySelectWinner",
      "outputs": [
        {
          "internalType": "bool",
          "name": "",
          "type": "bool"
        }
      ],
      "stateMutability": "view",
      "type": "function",
      "constant": true
    },
    {
      "inputs": [],
      "name": "isWinnerSelected",
      "outputs": [
        {
          "internalType": "bool",
          "name": "",
          "type": "bool"
        }
      ],
      "stateMutability": "view",
      "type": "function",
      "constant": true
    },
    {
      "inputs": [],
      "name": "getPotDirector",
      "outputs": [
        {
          "internalType": "address",
          "name": "",
          "type": "address"
        }
      ],
      "stateMutability": "view",
      "type": "function",
      "constant": true
    }
  ],
  "bytecode": "0x60a06040526003805473c587d9053cd1118f25f645f9e08bb98c9712a4ee6001600160a01b0319918216179091556004805473404460c6a5ede2d891e8297795264fde62adbb7592169190911790557f114f3da0a805b6a67d6e9cd2ec746f7028f1b7376365af575cfea3550dd1aa04600555600680546001600160501b03191666010003000186a01790556000600d819055600e8054610100600160a81b03191674e04fcea66b0cb00f192eaba6262f0e4db90d3c0700179055601055348015620000ca57600080fd5b5060405162001c8338038062001c83833981016040819052620000ed91620001ec565b6003546001600160a01b031662000104336200019c565b6001600160a01b03908116608052600354600180549183166001600160a01b0319928316179055600454600280549184166001600160e01b031990921691909117600160a01b6001600160401b03969096169590950294909417909355600a805433908516179055600c805460ff19908116909155600e80548216905560118054909116905560098054909316911617905562000241565b600080546001600160a01b038381166001600160a01b0319831681178455604051919092169283917f8be0079c531659141344cd1fd0a4f28419497f9722a3daafe3b4186f6b6457e09190a35050565b600080604083850312156200020057600080fd5b82516001600160401b03811681146200021857600080fd5b60208401519092506001600160a01b03811681146200023657600080fd5b809150509250929050565b608051611a1f620002646000396000818161046801526104c30152611a1f6000f3fe6080604052600436106101825760003560e01c80636c253437116100d5578063bfdf8b1211610084578063e89e106a11610061578063e89e106a146103ef578063e8b05e3814610405578063f2fde38b1461041d578063f6eaffc81461043d57005b8063bfdf8b1214610371578063c5ae6f3e14610389578063df15c37e146103ac57005b80638613e4cf116100b25780638613e4cf1461030a5780638b8ed6511461032a5780638da5cb5b1461033f57005b80636c253437146102cb578063715018a6146102e0578063766eef11146102f557005b80633ccfd60b116101315780634442713c1161010e5780634442713c1461027c578063640851b91461029457806364605d51146102b657005b80633ccfd60b1461023c5780633f4600c31461025157806343d726d61461026757005b80632ac37c8d1161015f5780632ac37c8d146101ed5780632ac75ab5146102125780633818b9ef1461022757005b806314e599871461018b5780631fe543e3146101ad57806326ba4319146101cd57005b3661018957005b005b34801561019757600080fd5b50475b6040519081526020015b60405180910390f35b3480156101b957600080fd5b506101896101c8366004611776565b61045d565b3480156101d957600080fd5b506101896101e836600461182d565b610503565b3480156101f957600080fd5b5061020261064c565b60405190151581526020016101a4565b34801561021e57600080fd5b506102026106de565b34801561023357600080fd5b50610202610879565b34801561024857600080fd5b50610189610a7a565b34801561025d57600080fd5b5061019a60105481565b34801561027357600080fd5b50610189610b03565b34801561028857600080fd5b50600c5460ff16610202565b3480156102a057600080fd5b506102a9610b6c565b6040516101a49190611851565b3480156102c257600080fd5b506102a9610bfc565b3480156102d757600080fd5b50610202610c5e565b3480156102ec57600080fd5b50610189610da7565b34801561030157600080fd5b50600b5461019a565b34801561031657600080fd5b5061018961032536600461182d565b610e0d565b34801561033657600080fd5b50610202610eec565b34801561034b57600080fd5b506000546001600160a01b03165b6040516001600160a01b0390911681526020016101a4565b34801561037d57600080fd5b5060115460ff16610202565b34801561039557600080fd5b50600e5461010090046001600160a01b0316610359565b3480156103b857600080fd5b506103d0600f546010546001600160a01b0390911691565b604080516001600160a01b0390931683526020830191909152016101a4565b3480156103fb57600080fd5b5061019a60085481565b34801561041157600080fd5b50600e5460ff16610202565b34801561042957600080fd5b5061018961043836600461182d565b611071565b34801561044957600080fd5b5061019a61045836600461189e565b611150565b336001600160a01b037f000000000000000000000000000000000000000000000000000000000000000016146104f5576040517f1cf993f40000000000000000000000000000000000000000000000000000000081523360048201526001600160a01b037f00000000000000000000000000000000000000000000000000000000000000001660248201526044015b60405180910390fd5b6104ff8282611171565b5050565b6000546001600160a01b0316331461055d5760405162461bcd60e51b815260206004820181905260248201527f4f776e61626c653a2063616c6c6572206973206e6f7420746865206f776e657260448201526064016104ec565b6001600160a01b0381166105b35760405162461bcd60e51b815260206004820152601760248201527f476976656e204164647265737320697320456d7074792100000000000000000060448201526064016104ec565b6000816001600160a01b0316311161060d5760405162461bcd60e51b815260206004820152601e60248201527f476976656e20416464726573732042616c616e6365206973205a65726f21000060448201526064016104ec565b600e80546001600160a01b03909216610100027fffffffffffffffffffffff0000000000000000000000000000000000000000ff909216919091179055565b600e5460009061010090046001600160a01b03163314806106775750600a546001600160a01b031633145b6106ba5760405162461bcd60e51b81526020600482015260146024820152735065726d697373696f6e2044656e69656420212160601b60448201526064016104ec565b50600c805460ff19908116909155600e805482169055601180549091169055600190565b600e5460009061010090046001600160a01b03163314806107095750600a546001600160a01b031633145b61074c5760405162461bcd60e51b81526020600482015260146024820152735065726d697373696f6e2044656e69656420212160601b60448201526064016104ec565b600e5460ff1615156001146107b95760405162461bcd60e51b815260206004820152602d60248201527f54686520506f74206973206e6f7420726561647920666f722053656c6563746960448201526c3733903a3432902bb4b73732b960991b60648201526084016104ec565b60115460ff16156108325760405162461bcd60e51b815260206004820152602660248201527f5468652057696e6e657220686173204e6f74206265656e2053656c656374656460448201527f205965742021000000000000000000000000000000000000000000000000000060648201526084016104ec565b42600d8190556040519081527f3b0b75510568e9c6916c9a7c853a3892b9634e5ca8717abbec6cea1b7f4ac2d79060200160405180910390a16108736111cc565b50600190565b600e5460009061010090046001600160a01b03163314806108a45750600a546001600160a01b031633145b6108e75760405162461bcd60e51b81526020600482015260146024820152735065726d697373696f6e2044656e69656420212160601b60448201526064016104ec565b600e5460ff1615156001146109545760405162461bcd60e51b815260206004820152602d60248201527f54686520506f74206973206e6f7420726561647920666f722053656c6563746960448201526c3733903a3432902bb4b73732b960991b60648201526084016104ec565b60115460ff1615156001146109ba5760405162461bcd60e51b815260206004820152602660248201527f5468652057696e6e657220686173206265656e2053656c6563746564206265666044820152656f726520212160d01b60648201526084016104ec565b6000600b8054905060076000815481106109d6576109d66118b7565b90600052602060002001546109eb91906118cd565b476010556040805182815247602082015247918101829052919250907f274f2e5ea35472f60f411beb007713c0f1c1b574f260789eedee1789cd49d9f59060600160405180910390a1610a3f824783611325565b50610a4a82826114b7565b610a52611557565b5050600c805460ff19908116909155600e805482169055601180549091169055506001919050565b6000546001600160a01b03163314610ad45760405162461bcd60e51b815260206004820181905260248201527f4f776e61626c653a2063616c6c6572206973206e6f7420746865206f776e657260448201526064016104ec565b60405133904780156108fc02916000818181858888f19350505050158015610b00573d6000803e3d6000fd5b50565b6000546001600160a01b03163314610b5d5760405162461bcd60e51b815260206004820181905260248201527f4f776e61626c653a2063616c6c6572206973206e6f7420746865206f776e657260448201526064016104ec565b600a546001600160a01b031680ff5b600954604080517f4488d67900000000000000000000000000000000000000000000000000000000815290516060926001600160a01b031691634488d6799160048083019260009291908290030181865afa158015610bcf573d6000803e3d6000fd5b505050506040513d6000823e601f3d908101601f19168201604052610bf791908101906118ef565b905090565b6060600b805480602002602001604051908101604052809291908181526020018280548015610c5457602002820191906000526020600020905b81546001600160a01b03168152600190910190602001808311610c36575b5050505050905090565b600e5460009061010090046001600160a01b0316331480610c895750600a546001600160a01b031633145b610ccc5760405162461bcd60e51b81526020600482015260146024820152735065726d697373696f6e2044656e69656420212160601b60448201526064016104ec565b600c5460ff1615610d455760405162461bcd60e51b815260206004820152602360248201527f546865204d6f6e74686c7920506f742069732073746172746564206265666f7260448201527f652021000000000000000000000000000000000000000000000000000000000060648201526084016104ec565b610d4d610b6c565b8051610d6191600b91602090910190611649565b50600c805460ff19908116600117909155601180549091169055600b5415610d975750600e805460ff1916600190811790915590565b50600e805460ff19169055600090565b6000546001600160a01b03163314610e015760405162461bcd60e51b815260206004820181905260248201527f4f776e61626c653a2063616c6c6572206973206e6f7420746865206f776e657260448201526064016104ec565b610e0b60006115ec565b565b6000546001600160a01b03163314610e675760405162461bcd60e51b815260206004820181905260248201527f4f776e61626c653a2063616c6c6572206973206e6f7420746865206f776e657260448201526064016104ec565b6001600160a01b038116610ebd5760405162461bcd60e51b815260206004820152601760248201527f476976656e204164647265737320697320456d7074792100000000000000000060448201526064016104ec565b6009805473ffffffffffffffffffffffffffffffffffffffff19166001600160a01b0392909216919091179055565b600e5460009061010090046001600160a01b0316331480610f175750600a546001600160a01b031633145b610f5a5760405162461bcd60e51b81526020600482015260146024820152735065726d697373696f6e2044656e69656420212160601b60448201526064016104ec565b600e5460ff161515600114610fc75760405162461bcd60e51b815260206004820152602d60248201527f54686520506f74206973206e6f7420726561647920666f722053656c6563746960448201526c3733903a3432902bb4b73732b960991b60648201526084016104ec565b60115460ff16156110295760405162461bcd60e51b815260206004820152602660248201527f5468652057696e6e657220686173206265656e2053656c6563746564206265666044820152656f726520212160d01b60648201526084016104ec565b600d54429060009082111561106857600d546110459083611989565b905061012c811115611068576011805460ff191660019081179091559250505090565b60009250505090565b6000546001600160a01b031633146110cb5760405162461bcd60e51b815260206004820181905260248201527f4f776e61626c653a2063616c6c6572206973206e6f7420746865206f776e657260448201526064016104ec565b6001600160a01b0381166111475760405162461bcd60e51b815260206004820152602660248201527f4f776e61626c653a206e6577206f776e657220697320746865207a65726f206160448201527f646472657373000000000000000000000000000000000000000000000000000060648201526084016104ec565b610b00816115ec565b6007818154811061116057600080fd5b600091825260209091200154905081565b80516111849060079060208401906116bb565b506011805460ff191660019081179091556040519081527f320b3a07d7df24a614650bb07173e3a57f3e687cb2e87e07ab99e0854d09493c9060200160405180910390a15050565b600e5461010090046001600160a01b03163314806111f45750600a546001600160a01b031633145b6112375760405162461bcd60e51b81526020600482015260146024820152735065726d697373696f6e2044656e69656420212160601b60448201526064016104ec565b6001546005546002546006546040517f5d3b1d3000000000000000000000000000000000000000000000000000000000815260048101939093527401000000000000000000000000000000000000000090910467ffffffffffffffff166024830152640100000000810461ffff16604483015263ffffffff808216606484015266010000000000009091041660848201526001600160a01b0390911690635d3b1d309060a4016020604051808303816000875af11580156112fc573d6000803e3d6000fd5b505050506040513d601f19601f8201168201806040525081019061132091906119ae565b600855565b6000806000600b868154811061133d5761133d6118b7565b600091825260209091200154600f805473ffffffffffffffffffffffffffffffffffffffff19166001600160a01b039283169081179091556009546040517f3305bd300000000000000000000000000000000000000000000000000000000081523060048201523360248201526044810189905260648101929092526003608483015290911690633305bd309060a4016020604051808303816000875af11580156113ec573d6000803e3d6000fd5b505050506040513d601f19601f8201168201806040525081019061141091906119c7565b600954600f546040517f4c56018f0000000000000000000000000000000000000000000000000000000081523360048201526001600160a01b039182166024820152604481018890529294501690634c56018f906064016020604051808303816000875af1158015611486573d6000803e3d6000fd5b505050506040513d601f19601f820116820180604052508101906114aa91906119ae565b5060019695505050505050565b6000600b83815481106114cc576114cc6118b7565b60009182526020822001546040516001600160a01b039091169250829184156108fc02918591818181858888f1935050505015801561150f573d6000803e3d6000fd5b50604080516001600160a01b0383168152602081018490527f9b320e270eb528aa46b3a21b196f1da153ccb2d5637e892594474e969fe6b7a9910160405180910390a1505050565b6009546040517f32f655fd00000000000000000000000000000000000000000000000000000000815233600482015260009182916001600160a01b03909116906332f655fd906024016020604051808303816000875af11580156115bf573d6000803e3d6000fd5b505050506040513d601f19601f820116820180604052508101906115e391906119c7565b50600192915050565b600080546001600160a01b0383811673ffffffffffffffffffffffffffffffffffffffff19831681178455604051919092169283917f8be0079c531659141344cd1fd0a4f28419497f9722a3daafe3b4186f6b6457e09190a35050565b8280548282559060005260206000209081019282156116ab579160200282015b828111156116ab578251825473ffffffffffffffffffffffffffffffffffffffff19166001600160a01b03909116178255602090920191600190910190611669565b506116b79291506116f6565b5090565b8280548282559060005260206000209081019282156116ab579160200282015b828111156116ab5782518255916020019190600101906116db565b5b808211156116b757600081556001016116f7565b634e487b7160e01b600052604160045260246000fd5b604051601f8201601f1916810167ffffffffffffffff8111828210171561174a5761174a61170b565b604052919050565b600067ffffffffffffffff82111561176c5761176c61170b565b5060051b60200190565b6000806040838503121561178957600080fd5b8235915060208084013567ffffffffffffffff8111156117a857600080fd5b8401601f810186136117b957600080fd5b80356117cc6117c782611752565b611721565b81815260059190911b820183019083810190888311156117eb57600080fd5b928401925b82841015611809578335825292840192908401906117f0565b80955050505050509250929050565b6001600160a01b0381168114610b0057600080fd5b60006020828403121561183f57600080fd5b813561184a81611818565b9392505050565b6020808252825182820181905260009190848201906040850190845b818110156118925783516001600160a01b03168352928401929184019160010161186d565b50909695505050505050565b6000602082840312156118b057600080fd5b5035919050565b634e487b7160e01b600052603260045260246000fd5b6000826118ea57634e487b7160e01b600052601260045260246000fd5b500690565b6000602080838503121561190257600080fd5b825167ffffffffffffffff81111561191957600080fd5b8301601f8101851361192a57600080fd5b80516119386117c782611752565b81815260059190911b8201830190838101908783111561195757600080fd5b928401925b8284101561197e57835161196f81611818565b8252928401929084019061195c565b979650505050505050565b6000828210156119a957634e487b7160e01b600052601160045260246000fd5b500390565b6000602082840312156119c057600080fd5b5051919050565b6000602082840312156119d957600080fd5b8151801515811461184a57600080fdfea2646970667358221220c3bcd1e00f18585cc772b4feaef7bb03715ccbc6420d01dec764935b969a991e64736f6c634300080d0033",
  "immutableReferences": {
    "10": [
      {
        "length": 32,
        "start": 1128
      },
      {
        "length": 32,
        "start": 1219
      }
    ]
  },
  "source": "// SPDX-License-Identifier: GNU-GPLv3\npragma solidity ^0.8.0;\n// pragma experimental ABIEncoderV2;\n\nimport \"@openzeppelin/contracts/access/Ownable.sol\";\nimport \"@openzeppelin/contracts/utils/math/SafeMath.sol\";\n\nimport \"@chainlink/contracts/src/v0.8/interfaces/LinkTokenInterface.sol\";\nimport \"@chainlink/contracts/src/v0.8/interfaces/VRFCoordinatorV2Interface.sol\";\nimport \"@chainlink/contracts/src/v0.8/VRFConsumerBaseV2.sol\";\n\n\n// import \"./LotteryGenerator.sol\";\n\n// import \"./VRFv2SubscriptionManager.sol\";\n// import \"./VRFv2Consumer.sol\";\n\nimport \"./LotteryCore.sol\";\n\n// import \"truffle/Console.sol\";\n// import \"hardhat/console.sol\";  // Work in Local-Test in Remix\n\nimport \"./LotteryInterface.sol\";\n\n\n/**\n  * @title Monthly Lottery For BSC Lottery Game \n  * @author Batis Abhari (https://github.com/baties - ContactMe: abhari_Batis@hotmail.com)\n  * @notice This SmartContract is responsible for implimentation of Monthly Pot Lottery \n  * @dev MonthlyLottery will be Generated by LotteryGenerator in Next Version\n*/\ncontract MonthlyLottery is Ownable, VRFConsumerBaseV2 {\n\n  VRFCoordinatorV2Interface COORDINATOR;\n  LinkTokenInterface LINKTOKEN;\n  uint64 s_subscriptionId;\n\n  // Rinkeby coordinator. For other networks,\n  // see https://docs.chain.link/docs/vrf-contracts/#configurations\n  // address vrfCoordinator = 0x6168499c0cFfCaCD319c818142124B7A15E857ab;  // Rinkeby\n  // address vrfCoordinator = 0x6A2AAd07396B36Fe02a22b33cf443582f682c82f;  // BSC TestNet coordinator\n  address vrfCoordinator = 0xc587d9053cd1118f25F645F9E08BB98c9712A4EE;  // BSC MainNet coordinator\n\n\n  // Rinkeby LINK token contract. For other networks,\n  // see https://docs.chain.link/docs/vrf-contracts/#configurations\n  // address link = 0x01BE23585060835E02B77ef475b0Cc51aA1e0709;  // Rinkeby\n  // address link = 0x84b9B910527Ad5C03A9Ca831909E21e236EA7b06;  //  BSC TestNet LINK token\n  address link = 0x404460C6A5EdE2D891e8297795264fDe62ADBB75;  // BSC MainNet LINK token\n\n  // The gas lane to use, which specifies the maximum gas price to bump to.\n  // For a list of available gas lanes on each network,\n  // see https://docs.chain.link/docs/vrf-contracts/#configurations\n  // bytes32 keyHash = 0xd89b2bf150e3b9e13446986e571fb9cab24b13cea0a43ea20a6049a85cc807cc;  // Rinkeby\n  // bytes32 keyHash = 0xd4bb89654db74673a187bd804519e65e3f71a52bc55f11da7601a13dcf505314;  //  BSC TestNet keyhash\n  bytes32 keyHash = 0x114f3da0a805b6a67d6e9cd2ec746f7028f1b7376365af575cfea3550dd1aa04;  //  BSC MAinNet keyhash\n\n  uint32 callbackGasLimit = 100000;\n  uint16 requestConfirmations = 3;\n  uint32 numWords =  1;\n\n  uint256[] public s_randomWords;\n  uint256 public s_requestId;\n\n\n  // address private _VRF;\n  address private generatorLotteryAddr;\n  // address private LiquidityPoolAddress;\n  // address private MultiSigWalletAddress;\n  address private LotteryOwner;\n\n  address[] private _WeeklyWinnersArray;\n  bool private lPotActive;  \n  uint private vrfCalledTime = 0;\n  bool private lReadySelectWinner; \n  address private potDirector=0xE04fCeA66B0Cb00F192eABa6262f0e4DB90D3C07;  \n  address private potWinnerAddress;\n  uint public potWinnerPrize = 0;\n  bool private lWinnerSelected;\n\n  event SelectWinnerIndex(uint winnerIndex, uint potBalance, uint winnerPrize);\n  event SelectWinnerAddress(address potWinner, uint winnerPrize);\n  event TotalPayment(address receiver, uint TrxValue);\n  event ReadyForSelectWinner(bool isReadySelectWinner);\n  event StartSelectngWinner(uint vrfCalledTime);\n  event LogDepositReceived(address sender, uint value);\n\n  // constructor(address VRF, address generatorLotteryAddress) {  \n  constructor(uint64 subscriptionId, address generatorLotteryAddress) VRFConsumerBaseV2(vrfCoordinator) {\n    COORDINATOR = VRFCoordinatorV2Interface(vrfCoordinator);\n    LINKTOKEN = LinkTokenInterface(link);\n    s_subscriptionId = subscriptionId;\n    LotteryOwner = msg.sender;\n    lPotActive = false;\n    lReadySelectWinner = false;\n    lWinnerSelected = false;\n    generatorLotteryAddr = generatorLotteryAddress;\n    // _VRF = VRF;\n  }\n\n  /* ToDo : Add & Complete Fallback routine */\n  fallback() external payable {\n  }\n\n  receive() external payable {\n  }\n\n  modifier isAllowedManager() {\n      require( msg.sender == potDirector || msg.sender == LotteryOwner , \"Permission Denied !!\" );\n      _;\n  }\n\n  modifier isGameOn() {\n      require(lPotActive , \"The Pot has not been Ready to Play yet Or The Game is Over!\");  // && !lReadySelectWinner \n      _;\n  }\n\n  function balanceInPot() public view returns(uint){\n    return address(this).balance;\n  }\n\n  function withdraw() external onlyOwner {\n    payable(msg.sender).transfer(address(this).balance);\n  }\n\n  function close() public onlyOwner { \n    address payable addr = payable(address(LotteryOwner));  // owner\n    selfdestruct(addr); \n  }\n\n  /**\n    * @notice Request Random Words From VRF Coordinator\n    * @dev For more Details refer to : https://docs.chain.link/docs/chainlink-vrf-best-practices/#getting-multiple-random-numbers\n  */\n  function requestRandomWords() internal isAllowedManager {    \n    // Will revert if subscription is not set and funded.\n    s_requestId = COORDINATOR.requestRandomWords(\n      keyHash,\n      s_subscriptionId,\n      requestConfirmations,\n      callbackGasLimit,\n      numWords\n    );\n  }\n\n  /**\n    * @notice VRF Coordinator Call Back this Function after generating Random Number\n    * @dev For more Details refer to : https://docs.chain.link/docs/chainlink-vrf-best-practices/#getting-multiple-random-numbers\n  */\n  function fulfillRandomWords(\n    uint256, /* requestId */\n    uint256[] memory randomWords\n  ) internal override {\n    s_randomWords = randomWords;\n    // select_Winner_Continue();\n    lWinnerSelected = true;\n    emit ReadyForSelectWinner(lWinnerSelected);\n  }\n\n  /* ToDo : Replace This function with OpenZeppelin SafeMath */\n  /**\n    * @notice Function for deviding two Integer Numbers and return the results.\n    * @dev Safe Function for Devision Operation.\n    * @param numerator : The Integer Number which is being devided on another Integer Number.\n    * @param denominator : The Integer Number which another Int NUmber is devided by this.  \n    * @return quotient and remainder of the Devision, Both are Integer Numbers. \n  */\n  function getDivided(uint numerator, uint denominator) private pure returns(uint quotient, uint remainder) {\n    require( denominator >= 0, \"Division is Not Possible , Bug in Numbers !\");\n    require( numerator > 0, \"Division is Not Possible , Bug in Numbers !\");\n    quotient  = numerator / denominator; \n    remainder = numerator - denominator * quotient;\n  }\n\n  /**\n    * @notice The Local Random Generator Function.\n    * @dev The Local Random Generator Function for Local Development and Running the Tests.\n    * @return None. \n  */\n  function randomGenerator() private view returns (uint) {\n    return uint(\n      keccak256(\n        abi.encodePacked(\n          block.difficulty, block.timestamp, _WeeklyWinnersArray ))) ;\n  }\n\n  // function getRandomValue(address _VRFv2) public view onlyOwner returns (uint256 randomWords) {\n  //   // uint8 zeroOne = uint8(randomGenerator() % 2);\n  //   // randomWords = randomGenerator();\n  //   randomWords = VRFv2Consumer(_VRFv2).getlRandomWords();\n  // }\n\n  /**\n    * @notice Monthly Lottery Pot Initialization.\n    * @dev AtFirst each Monthly Pot must be Initialized.\n    * @return success Flag \n  */\n  function potInitialize() external isAllowedManager returns(bool success) {\n    require(lPotActive == false, \"The Monthly Pot is started before !\");\n    _WeeklyWinnersArray = getWeeklyWinnersArray();  \n    lPotActive = true ;\n    lWinnerSelected = false;\n    if (_WeeklyWinnersArray.length > 0) {\n        lReadySelectWinner = true;\n        success = true;\n    } else {\n        lReadySelectWinner = false;\n        success = false;\n    }\n}\n\n  /**\n    * @notice Hourly Lottery Pot is Pausable, This is the Trigger.\n    * @dev THis Function just Pauses the current Pot Play and Select Winner Routines and Use only for Emergency .\n    * @return success Flag \n  */\n  function potPause() external isAllowedManager returns(bool success) {\n    lPotActive = false ;\n    lReadySelectWinner = false;\n    lWinnerSelected = false;\n    success = true;\n  }\n\n  /**\n    * @notice Monthly Lottery Pot Winner Selection, This Winner is Selected among Weekly Winner List.\n    * @dev Monthly Lottery Pot Winner Selection Start Process, This Function Just Called Request Random Number Routine For Communicate with VRF Coordinator. \n    * @return success Flag \n  */\n  function select_Winner() public isAllowedManager returns(bool success) {  \n\n    require(lReadySelectWinner == true, \"The Pot is not ready for Selecting the Winner\");\n    require(lWinnerSelected == false, \"The Winner has Not been Selected Yet !\");\n\n    // lPotActive = false;\n    vrfCalledTime = block.timestamp;\n    emit StartSelectngWinner(vrfCalledTime);\n    \n    requestRandomWords();  // Comment For Local-Test in Remix  \n    // lWinnerSelected = true;  // UnComment For Local-Test in Remix\n\n    success = true;\n\n  }\n\n  /**\n    * @notice Monthly Lottery Pot Winner Selection Continue, This Function Selects The Winner With Random Number Generated.\n    * @dev Monthly Lottery Pot Winner Selection Continue, This Function Only Call after fulfillRandomWords is Called. \n    * @dev This Function is responsible for Updating Lottery Data, Pay the Winner Prize & then clear and Release the Memory\n    * @return success Flag \n  */\n  function select_Winner_Continue() public isAllowedManager returns(bool success) {  \n    \n    require(lReadySelectWinner == true, \"The Pot is not ready for Selecting the Winner\");\n    // if (planB_VRFDelay() == false) {\n      require(lWinnerSelected == true, \"The Winner has been Selected before !!\");\n    // }\n\n    // _WeeklyWinnersArray = getWeeklyWinnersArray();  \n    // uint256 l_randomWords = getRandomValue(_VRF);\n    uint winnerIndex = s_randomWords[0] % _WeeklyWinnersArray.length;   // l_randomWords   // Comment For Local-Test in Remix\n    // uint randomWords = randomGenerator();  // UnComment For Local-Test in Remix\n    // uint winnerIndex = randomWords % _WeeklyWinnersArray.length;  // UnComment For Local-Test in Remix   \n\n    uint winnerPrize = address(this).balance; // Calculation();\n    potWinnerPrize = address(this).balance;\n    \n    emit SelectWinnerIndex(winnerIndex, address(this).balance, winnerPrize);\n    \n    UpdateLotteryData(winnerIndex, address(this).balance, winnerPrize);\n    WinnerPrizePayment(winnerIndex, winnerPrize); \n    // FinalPayment();\n    ClearDataBase();\n\n    lPotActive = false;\n    lReadySelectWinner = false;\n    lWinnerSelected = false;\n    success = true;\n\n  }\n\n  /**\n    * @notice Release Smart Contract Memory .\n    * @dev Clear All Storages .\n    * @return True\n  */\n  function ClearDataBase() private returns (bool) {\n    bool _success;\n    _success = LotteryInterface(generatorLotteryAddr).clearWeeklyWinnersArrayMap(msg.sender);\n    return true;\n  }\n\n  /**\n    * @notice Calculation of Pot Winner Prize.\n    * @dev Findout the 5% of the Total Pot and The Winner payment.\n  */\n  // function Calculation() internal view returns (uint winnerPrize){\n\n  //   uint totalPot = address(this).balance;\n  //   // _LotteryWinnersArray = getLotteryWinnersArray();  \n  //   // address WinnerAddress = _LotteryWinnersArray[_winnerIndex];\n  //   (winnerPrize, ) = getDivided(totalPot, 20);  // winnerPrize\n\n  // }\n\n  /**\n    * @notice Pay Pot Prize to the Winner.\n    * @dev Transfer Pot Prize to the Winner.\n  */\n  function WinnerPrizePayment(uint _winnerIndex, uint _winnerPrize) private {\n\n    // _LotteryWinnersArray = getLotteryWinnersArray();  \n    address payable potWinner = payable(_WeeklyWinnersArray[_winnerIndex]);  \n    potWinner.transfer(_winnerPrize);\n    emit SelectWinnerAddress(potWinner, _winnerPrize);\n    // _LotteryWinnersArray[winnerIndex].transfer(address(this).balance);\n\n  }\n\n  /**\n    * @notice Remaining Pot Money Transfer.\n    * @dev Transfer remaining Money to the Liquidity Pool.\n  */\n  // function FinalPayment() internal {   // onlyOwner \n\n  //   address payable receiver = payable(LiquidityPoolAddress);\n  //   uint TrxValue = address(this).balance;\n  //   receiver.transfer(TrxValue);\n  //   emit TotalPayment(receiver, TrxValue);\n\n  // }\n\n  /**\n    * @notice Save The Winner Address for Monthly Lottery\n    * @dev Update Generator Smart Contract For Saving Hourly Winner Address\n  */\n  function UpdateLotteryData(uint _winnerIndex, uint _balance, uint winnerPrize) private returns(bool) {\n    bool _success;\n    uint _winnerId;\n    // _LotteryWinnersArray = getLotteryWinnersArray();  \n    // address _winnerAddress = _WeeklyWinnersArray[_winnerIndex];\n    potWinnerAddress = _WeeklyWinnersArray[_winnerIndex];\n    _success = LotteryInterface(generatorLotteryAddr).setlotteryStructs(address(this), msg.sender, _balance, potWinnerAddress , 3);  \n    _winnerId = LotteryInterface(generatorLotteryAddr).setMonthlyWinnersArrayMap(msg.sender, potWinnerAddress, winnerPrize );  \n    return true;\n  }\n\n  /**\n    * @notice This Function is Only a PLan B for When The VRF Coordinator does not respond in a short time .\n    * @dev Only If after 5 min the VRF Coordinator does not respond This function Change the lWinnerSelected to True so the Last Random Word used instead of a new one .\n    * @return isActive Flag \n  */\n  function planB_VRFDelay() public isAllowedManager returns(bool isActive){ \n    require(lReadySelectWinner == true, \"The Pot is not ready for Selecting the Winner\");\n    require(lWinnerSelected == false, \"The Winner has been Selected before !!\");\n    uint nowTime = block.timestamp;\n    uint waitTime = 0;\n    if (nowTime > vrfCalledTime) {\n      waitTime = nowTime - vrfCalledTime ;\n      if (waitTime > 5 minutes) {\n          lWinnerSelected = true;\n          isActive = true;\n      } else {\n        isActive = false;\n      }\n    } else {\n      isActive = false;\n    }\n  }\n\n  /**\n    * @notice Get the list of All Weekly Lottery Winners\n    * @dev \n    * @return Weekly Winner List\n  */\n  function getWeeklyWinnersArray() public view returns(address[] memory) {\n    return LotteryInterface(generatorLotteryAddr).getWeeklyWinners();\n  }\n\n  function set_generatorLotteryAddress(address _contractAddr) external onlyOwner {\n    require(_contractAddr != address(0), \"Given Address is Empty!\");\n    generatorLotteryAddr = _contractAddr;\n  }\n\n  // function set_LiquidityPoolAddress(address _LiquidityPoolAddress) external onlyOwner {\n  //   require(_LiquidityPoolAddress != address(0) );\n  //   LiquidityPoolAddress = _LiquidityPoolAddress;\n  // }\n\n  // function set_MultiSigWalletAddress(address _MultiSigWalletAddress) external onlyOwner {\n  //   require(_MultiSigWalletAddress != address(0) );\n  //   MultiSigWalletAddress = _MultiSigWalletAddress;\n  // }\n\n  function setDirector(address _DirectorAddress) external onlyOwner {\n    require(_DirectorAddress != address(0), \"Given Address is Empty!\");\n    require(address(_DirectorAddress).balance > 0, \"Given Address Balance is Zero!\");\n    potDirector = _DirectorAddress;\n  }\n\n  function listPlayers() external view returns (address[] memory){  \n    return _WeeklyWinnersArray;  \n  }\n\n  function isPotActive() public view returns(bool) {\n    return lPotActive;\n  }\n\n  function getPlayersNumber() public view returns(uint) {\n    return _WeeklyWinnersArray.length;\n  }\n\n  function getWinners() public view returns(address, uint) {\n    return ( potWinnerAddress, potWinnerPrize );  \n  }  \n\n  function isReadySelectWinner() public view returns(bool) {\n    return lReadySelectWinner;\n  }\n\n  function isWinnerSelected() public view returns(bool) {\n    return lWinnerSelected;\n  }\n\n  function getPotDirector() public view returns(address) {\n    return potDirector;\n  }\n\n  // function getVerifier() public view returns(address) {\n  //   return _VRF;\n  // }\n\n}\n\n/**\n************************************************************************************\n************************************************************************************\n*/\n\n\n",
  "sourcePath": "/home/batis/SrcCode/myPRJ/SmartContBlockChain/HourlyLotto/BSCLottery-1/contracts/MonthlyLottery.sol",
  "compiler": {
    "name": "solc",
    "version": "0.8.13+commit.abaa5c0e.Emscripten.clang"
  },
  "schemaVersion": "3.4.8",
  "updatedAt": "2022-07-31T11:48:54.845Z",
  "networkType": "ethereum",
  "devdoc": {
    "author": "Batis Abhari (https://github.com/baties - ContactMe: abhari_Batis@hotmail.com)",
    "details": "MonthlyLottery will be Generated by LotteryGenerator in Next Version",
    "kind": "dev",
    "methods": {
      "getWeeklyWinnersArray()": {
        "returns": {
          "_0": "Weekly Winner List"
        }
      },
      "owner()": {
        "details": "Returns the address of the current owner."
      },
      "planB_VRFDelay()": {
        "details": "Only If after 5 min the VRF Coordinator does not respond This function Change the lWinnerSelected to True so the Last Random Word used instead of a new one .",
        "returns": {
          "isActive": "Flag "
        }
      },
      "potInitialize()": {
        "details": "AtFirst each Monthly Pot must be Initialized.",
        "returns": {
          "success": "Flag "
        }
      },
      "potPause()": {
        "details": "THis Function just Pauses the current Pot Play and Select Winner Routines and Use only for Emergency .",
        "returns": {
          "success": "Flag "
        }
      },
      "renounceOwnership()": {
        "details": "Leaves the contract without owner. It will not be possible to call `onlyOwner` functions anymore. Can only be called by the current owner. NOTE: Renouncing ownership will leave the contract without an owner, thereby removing any functionality that is only available to the owner."
      },
      "select_Winner()": {
        "details": "Monthly Lottery Pot Winner Selection Start Process, This Function Just Called Request Random Number Routine For Communicate with VRF Coordinator. ",
        "returns": {
          "success": "Flag "
        }
      },
      "select_Winner_Continue()": {
        "details": "Monthly Lottery Pot Winner Selection Continue, This Function Only Call after fulfillRandomWords is Called. This Function is responsible for Updating Lottery Data, Pay the Winner Prize & then clear and Release the Memory",
        "returns": {
          "success": "Flag "
        }
      },
      "transferOwnership(address)": {
        "details": "Transfers ownership of the contract to a new account (`newOwner`). Can only be called by the current owner."
      }
    },
    "title": "Monthly Lottery For BSC Lottery Game ",
    "version": 1
  },
  "userdoc": {
    "kind": "user",
    "methods": {
      "getWeeklyWinnersArray()": {
        "notice": "Get the list of All Weekly Lottery Winners"
      },
      "planB_VRFDelay()": {
        "notice": "This Function is Only a PLan B for When The VRF Coordinator does not respond in a short time ."
      },
      "potInitialize()": {
        "notice": "Monthly Lottery Pot Initialization."
      },
      "potPause()": {
        "notice": "Hourly Lottery Pot is Pausable, This is the Trigger."
      },
      "select_Winner()": {
        "notice": "Monthly Lottery Pot Winner Selection, This Winner is Selected among Weekly Winner List."
      },
      "select_Winner_Continue()": {
        "notice": "Monthly Lottery Pot Winner Selection Continue, This Function Selects The Winner With Random Number Generated."
      }
    },
    "notice": "This SmartContract is responsible for implimentation of Monthly Pot Lottery ",
    "version": 1
  }
}